:1000000007C1000033C1000031C100002FC1000052
:100010002DC100002BC1000029C1000027C1000034
:1000200025C1000023C1000021C100001FC1000044
:100030001DC100001BC1000019C1000017C1000054
:1000400015C1000013C1000011C100000FC1000064
:100050000DC100000BC1000009C100004EC300002B
:1000600005C1000003C1000001C10000FFC0000085
:10007000FDC00000FBC00000F9C00000F7C0000098
:10008000F5C00000F3C00000F1C00000EFC00000A8
:10009000EDC00000EBC00000E9C00000E7C00000B8
:1000A000E5C00000E3C00000E1C00000DFC00000C8
:1000B000DDC00000DBC00000D9C00000D7C00000D8
:1000C000D5C00000D3C00000D1C00000CFC00000E8
:1000D000CDC00000CBC00000C9C00000C7C00000F8
:1000E000C5C000006501680157015B015F019F0108
:1000F0006C01700176017A017E01840188018C0116
:100100009F01920196019A0100002100240027001E
:100110002A002D0030003300010100000401070116
:100120000A0100002200250028002B002E003100CB
:10013000340002010000050108010B010505050559
:10014000070508080808020202020A0A080804044F
:10015000040401010101010101010303030303037D
:100160000303040707070C0C0C0C0C0C0C0C02020C
:10017000020206060606060606060B0B0B0B0B0B09
:100180000B0B010210202008081020401020408096
:10019000020102010804020101020408102040804B
:1001A00080402010080402018004020180402010D9
:1001B0000804020108040201010204081020408022
:1001C000010204081020408000000A0B02090C0DF7
:1001D0000E080703040100000000000000000000FA
:1001E000000000000000000000000000000000000F
:1001F00000000000121110000000000000000000CC
:100200000000000000000000000000000000BA0430
:1002100011241FBECFEFD1E2DEBFCDBF00E00CBF87
:1002200012E0A0E0B2E0EAECF9E000E00BBF02C0AF
:1002300007900D92A831B107D9F722E0A8E1B2E00A
:1002400001C01D92A933B207E1F711E0C8E0D1E087
:1002500000E005C021970109802FFE01A8D3C73017
:10026000D10780E00807B1F792D2ADC3C9CE362FCF
:1002700090E0FC01E853FE4F4491FC01EE57FE4F25
:100280002491FC01E45CFE4F9491992309F46BC026
:10029000442309F454C050E0FA013197E231F105EA
:1002A00008F04DC08827EE58FF4F8F4F80C38091D4
:1002B00080008F7707C0809180008F7D03C0809180
:1002C0008000877F809380003AC084B58F7702C01A
:1002D00084B58F7D84BD33C08091B0008F7703C01B
:1002E0008091B0008F7D8093B00029C080919000F4
:1002F0008F7707C0809190008F7D03C08091900020
:10030000877F809390001BC08091A0008F7707C0EB
:100310008091A0008F7D03C08091A000877F809393
:10032000A0000DC0809120018F7707C0809120012F
:100330008F7D03C080912001877F80932001E92F6A
:10034000F0E0EE0FFF1FEE5DFE4FA591B4919FB759
:10035000F894311104C08C912095282302C0EC91AF
:100360002E2B2C939FBF0895CF93DF9390E0FC0139
:10037000EE57FE4F2491FC01E45CFE4F84918823EC
:1003800061F190E0880F991FFC01E85FFE4FC59175
:10039000D491FC01EE5DFE4FA591B491611109C0AD
:1003A0009FB7F8948881209582238883EC912E232F
:1003B0000BC0623061F49FB7F8948881322F30957A
:1003C00083238883EC912E2B2C939FBF06C08FB77D
:1003D000F894E8812E2B28838FBFDF91CF91089569
:1003E0003FB7F89480911D0290911E02A0911F02C8
:1003F000B091200226B5A89B05C02F3F19F00196A9
:10040000A11DB11D3FBFBA2FA92F982F8827820F9A
:10041000911DA11DB11DBC01CD0142E0660F771FEA
:10042000881F991F4A95D1F70895CF92DF92EF92D6
:10043000FF920F931F93CF93DF936C017A018B018F
:10044000C0E0D0E0CE15DF0581F0D8016D918D01BF
:10045000D601ED91FC910190F081E02DC601199536
:10046000892B11F02196EECF7E01C701DF91CF914C
:100470001F910F91FF90EF90DF90CF900895CF9351
:10048000DF93EC0160E08E81F2DE61E08E81EFDED1
:1004900060E08E81ECDE8BE891E00197F1F7DF916F
:1004A000CF910895CF92DF92EF92FF920F931F9317
:1004B000CF93DF936C017C0187E0E80EF11CC0E074
:1004C000D0E0062F10E0B8010C2E02C0759567959C
:1004D0000A94E2F76170F70181917F01C8DE2196ED
:1004E000C430D10581F7C601DF91CF911F910F91E3
:1004F000FF90EF90DF90CF90C2CFCF92DF92EF923C
:10050000FF920F931F93CF93DF93EC01F62E642F8E
:100510008C81ADDE8D818F3F11F060E0A8DE8F858C
:100520000F2D10E084FF23C06E0187E0C80ED11CA0
:10053000E12CF12CB8010E2C02C0759567950A9438
:10054000E2F76170F60181916F0191DEFFEFEF1A22
:10055000FF0A88E0E816F10469F7CE01DF91CF9138
:100560001F910F91FF90EF90DF90CF9088CFB8014F
:1005700084E0759567958A95E1F7CE0193DF6F2D3D
:10058000CE01DF91CF911F910F91FF90EF90DF90FF
:10059000CF9088CFCF93DF93823028F090913002B4
:1005A000986090933002809334021092350280E478
:1005B0008093360280E18093370280E58093380291
:1005C00061E080912502D0DE809126028F3F11F0FC
:1005D00061E0CADE61E080912702C6DEC1E2D2E0BE
:1005E0009E01215232408091300284FD03C084E09C
:1005F00090E002C088E090E021962817390724F4A3
:1006000061E08E81B1DEECCF8BE39DE00197F1F7E5
:1006100060E0809125022BDE60E08091270227DEDA
:10062000809126028F3F11F060E021DE6091300260
:1006300064FD1CC063E081E292E034DFCBE4D6E4E9
:10064000CE010197F1F763E081E292E02BDF219781
:10065000F1F763E081E292E025DF83E592E0019724
:10066000F1F762E081E292E01DDF1BC0606240E0D2
:1006700081E292E042DF8BE496E40197F1F760912A
:100680003002606240E081E292E037DF83E592E091
:100690000197F1F760913002606240E081E292E000
:1006A0002CDF60913002606240E081E292E025DF61
:1006B00084E08093310240E06CE081E292E01DDF53
:1006C00040E061E081E292E018DF8BE39FE1019777
:1006D000F1F782E08093320240E066E081E292E04E
:1006E000DF91CF910ACF41E008DF81E090E00895EB
:1006F000089580E090E0089562D11F920F920FB6A6
:100700000F9211242F933F938F939F93AF93BF9397
:100710008091190290911A02A0911B02B0911C02C3
:100720003091180223E0230F2D3720F40196A11DEC
:10073000B11D05C026E8230F0296A11DB11D20930F
:1007400018028093190290931A02A0931B02B0938F
:100750001C0280911D0290911E02A0911F02B09177
:1007600020020196A11DB11D80931D0290931E02CF
:10077000A0931F02B0932002BF91AF919F918F91E0
:100780003F912F910F900FBE0F901F901895789466
:1007900084B5826084BD84B5816084BD85B5826086
:1007A00085BD85B5816085BD80916E008160809337
:1007B0006E001092810080918100826080938100A0
:1007C00080918100816080938100809180008160B0
:1007D000809380008091B10084608093B10080910B
:1007E000B00081608093B00080919100826080931E
:1007F00091008091910081608093910080919000A0
:100800008160809390008091A10082608093A1001C
:100810008091A10081608093A1008091A0008160FF
:100820008093A000809121018260809321018091BA
:10083000210181608093210180912001816080935A
:10084000200180917A00846080937A0080917A0000
:10085000826080937A0080917A00816080937A0030
:1008600080917A00806880937A001092C10061E0E4
:1008700081E07ADD61E082E077DD61E083E074DDD4
:1008800061E084E071DD61E085E06EDD61E086E0DD
:100890006BDD61E087E068DD61E088E065DD61E0F7
:1008A00089E062DD61E08AE05FDD61E08BE05CDDD4
:1008B00061E08CE059DD60E084E156DD60E085E1D7
:1008C00053DD60E086E150DD60E087E14DDD60E012
:1008D00088E14ADD60E089E147DD60E08AE144DDEE
:1008E00060E08BE141DD60E08CE13EDD60E08DE1C8
:1008F0003BDD60E08FE138DD60E080E235DD60E027
:1009000081E232DD60E082E22FDD82E043DE4AE018
:1009100050E06CE072E081E292E087DD61DD4B0146
:100920005C0188EBC82E8BE0D82EE12CF12C58DD31
:10093000DC01CB0188199909AA09BB09883E9340BB
:10094000A105B105A0F321E0C21AD108E108F10820
:1009500088EE880E83E0981EA11CB11CC114D1043E
:10096000E104F10421F7C0E0D0E02097F1F30E9408
:100970000000FBCFE1E2F2E01382128284E092E019
:10098000918380838EE084838FEF858383E18683E8
:100990008FE0878380E1808781E1818782E18287A0
:1009A0001386148615861686178681E0F3CDEE0F22
:1009B000FF1F881F8BBF0790F691E02D199481E0EF
:0A09C00090E0F89400C0F894FFCF17
:1009CA000000000073031502790378035443432D92
:0809DA00333230302D530000D0
:00000001FF
